{
  "_format": "hh-sol-artifact-1",
  "contractName": "EthazonShop",
  "sourceName": "contracts/EthazonShop.sol",
  "abi": [
    {
      "anonymous": false,
      "inputs": [
        {
          "indexed": true,
          "internalType": "address",
          "name": "customer",
          "type": "address"
        },
        {
          "indexed": false,
          "internalType": "uint256",
          "name": "refundAmount",
          "type": "uint256"
        }
      ],
      "name": "OrderCanceled",
      "type": "event"
    },
    {
      "anonymous": false,
      "inputs": [
        {
          "indexed": true,
          "internalType": "address",
          "name": "customer",
          "type": "address"
        }
      ],
      "name": "OrderConfirmed",
      "type": "event"
    },
    {
      "anonymous": false,
      "inputs": [
        {
          "indexed": true,
          "internalType": "address",
          "name": "customer",
          "type": "address"
        },
        {
          "indexed": false,
          "internalType": "string",
          "name": "name",
          "type": "string"
        },
        {
          "indexed": false,
          "internalType": "string",
          "name": "shippingAddress",
          "type": "string"
        },
        {
          "indexed": false,
          "internalType": "uint256",
          "name": "amountPaid",
          "type": "uint256"
        }
      ],
      "name": "OrderCreated",
      "type": "event"
    },
    {
      "inputs": [],
      "name": "PRICE",
      "outputs": [
        {
          "internalType": "uint256",
          "name": "",
          "type": "uint256"
        }
      ],
      "stateMutability": "view",
      "type": "function"
    },
    {
      "inputs": [],
      "name": "cancelOrder",
      "outputs": [],
      "stateMutability": "nonpayable",
      "type": "function"
    },
    {
      "inputs": [],
      "name": "confirmOrder",
      "outputs": [],
      "stateMutability": "nonpayable",
      "type": "function"
    },
    {
      "inputs": [
        {
          "internalType": "string",
          "name": "customerName",
          "type": "string"
        },
        {
          "internalType": "string",
          "name": "shippingAddress",
          "type": "string"
        }
      ],
      "name": "makeOrder",
      "outputs": [],
      "stateMutability": "payable",
      "type": "function"
    },
    {
      "inputs": [
        {
          "internalType": "address",
          "name": "",
          "type": "address"
        }
      ],
      "name": "orders",
      "outputs": [
        {
          "internalType": "bool",
          "name": "isValidEthazonOrder",
          "type": "bool"
        },
        {
          "internalType": "string",
          "name": "customerName",
          "type": "string"
        },
        {
          "internalType": "string",
          "name": "shippingAddress",
          "type": "string"
        },
        {
          "internalType": "bool",
          "name": "hasConfirmed",
          "type": "bool"
        }
      ],
      "stateMutability": "view",
      "type": "function"
    }
  ],
  "bytecode": "0x608060405234801561001057600080fd5b50611308806100206000396000f3fe60806040526004361061004a5760003560e01c80636a8165481461004f5780638d859f3e14610066578063a00f198a14610091578063dc4c9e95146100a8578063f40e8471146100c4575b600080fd5b34801561005b57600080fd5b50610064610104565b005b34801561007257600080fd5b5061007b610388565b6040516100889190610972565b60405180910390f35b34801561009d57600080fd5b506100a6610394565b005b6100c260048036038101906100bd91906109fc565b6104c1565b005b3480156100d057600080fd5b506100eb60048036038101906100e69190610adb565b6107ff565b6040516100fb9493929190610bb3565b60405180910390f35b6000803373ffffffffffffffffffffffffffffffffffffffff1673ffffffffffffffffffffffffffffffffffffffff16815260200190815260200160002060000160009054906101000a900460ff16610192576040517f08c379a000000000000000000000000000000000000000000000000000000000815260040161018990610c52565b60405180910390fd5b6000803373ffffffffffffffffffffffffffffffffffffffff1673ffffffffffffffffffffffffffffffffffffffff16815260200190815260200160002060030160009054906101000a900460ff1615610221576040517f08c379a000000000000000000000000000000000000000000000000000000000815260040161021890610cbe565b60405180910390fd5b60008060003373ffffffffffffffffffffffffffffffffffffffff1673ffffffffffffffffffffffffffffffffffffffff16815260200190815260200160002060000160006101000a81548160ff02191690831515021790555060003373ffffffffffffffffffffffffffffffffffffffff1667016345785d8a00006040516102a990610d0f565b60006040518083038185875af1925050503d80600081146102e6576040519150601f19603f3d011682016040523d82523d6000602084013e6102eb565b606091505b505090508061032f576040517f08c379a000000000000000000000000000000000000000000000000000000000815260040161032690610d70565b60405180910390fd5b3373ffffffffffffffffffffffffffffffffffffffff167fafe5d45b77c7cea746dab67e30e6ca60c00cec51787feb121441c48ec20e3e5767016345785d8a000060405161037d9190610972565b60405180910390a250565b67016345785d8a000081565b6000803373ffffffffffffffffffffffffffffffffffffffff1673ffffffffffffffffffffffffffffffffffffffff16815260200190815260200160002060000160009054906101000a900460ff16610422576040517f08c379a000000000000000000000000000000000000000000000000000000000815260040161041990610c52565b60405180910390fd5b60016000803373ffffffffffffffffffffffffffffffffffffffff1673ffffffffffffffffffffffffffffffffffffffff16815260200190815260200160002060030160006101000a81548160ff0219169083151502179055503373ffffffffffffffffffffffffffffffffffffffff167faa29531fb805c9e15aa9db1144f1bbf44834ea83352bd876d4cf71f7b7fac06660405160405180910390a2565b60008060003373ffffffffffffffffffffffffffffffffffffffff1673ffffffffffffffffffffffffffffffffffffffff16815260200190815260200160002090508060000160009054906101000a900460ff16801561053057508060030160009054906101000a900460ff16155b15610570576040517f08c379a000000000000000000000000000000000000000000000000000000000815260040161056790610ddc565b60405180910390fd5b600085859050116105b6576040517f08c379a00000000000000000000000000000000000000000000000000000000081526004016105ad90610e48565b60405180910390fd5b600083839050116105fc576040517f08c379a00000000000000000000000000000000000000000000000000000000081526004016105f390610eb4565b60405180910390fd5b67016345785d8a00003414610646576040517f08c379a000000000000000000000000000000000000000000000000000000000815260040161063d90610f20565b60405180910390fd5b604051806080016040528060011515815260200186868080601f016020809104026020016040519081016040528093929190818152602001838380828437600081840152601f19601f82011690508083019250505050505050815260200184848080601f016020809104026020016040519081016040528093929190818152602001838380828437600081840152601f19601f820116905080830192505050505050508152602001600015158152506000803373ffffffffffffffffffffffffffffffffffffffff1673ffffffffffffffffffffffffffffffffffffffff16815260200190815260200160002060008201518160000160006101000a81548160ff0219169083151502179055506020820151816001019081610768919061117b565b50604082015181600201908161077e919061117b565b5060608201518160030160006101000a81548160ff0219169083151502179055509050503373ffffffffffffffffffffffffffffffffffffffff167f34ee6874d3c606d90fa1abf0e90748de16a0402bb7844ef264e01c28dc420b8186868686346040516107f0959493929190611289565b60405180910390a25050505050565b60006020528060005260406000206000915090508060000160009054906101000a900460ff169080600101805461083590610f9e565b80601f016020809104026020016040519081016040528092919081815260200182805461086190610f9e565b80156108ae5780601f10610883576101008083540402835291602001916108ae565b820191906000526020600020905b81548152906001019060200180831161089157829003601f168201915b5050505050908060020180546108c390610f9e565b80601f01602080910402602001604051908101604052809291908181526020018280546108ef90610f9e565b801561093c5780601f106109115761010080835404028352916020019161093c565b820191906000526020600020905b81548152906001019060200180831161091f57829003601f168201915b5050505050908060030160009054906101000a900460ff16905084565b6000819050919050565b61096c81610959565b82525050565b60006020820190506109876000830184610963565b92915050565b600080fd5b600080fd5b600080fd5b600080fd5b600080fd5b60008083601f8401126109bc576109bb610997565b5b8235905067ffffffffffffffff8111156109d9576109d861099c565b5b6020830191508360018202830111156109f5576109f46109a1565b5b9250929050565b60008060008060408587031215610a1657610a1561098d565b5b600085013567ffffffffffffffff811115610a3457610a33610992565b5b610a40878288016109a6565b9450945050602085013567ffffffffffffffff811115610a6357610a62610992565b5b610a6f878288016109a6565b925092505092959194509250565b600073ffffffffffffffffffffffffffffffffffffffff82169050919050565b6000610aa882610a7d565b9050919050565b610ab881610a9d565b8114610ac357600080fd5b50565b600081359050610ad581610aaf565b92915050565b600060208284031215610af157610af061098d565b5b6000610aff84828501610ac6565b91505092915050565b60008115159050919050565b610b1d81610b08565b82525050565b600081519050919050565b600082825260208201905092915050565b60005b83811015610b5d578082015181840152602081019050610b42565b60008484015250505050565b6000601f19601f8301169050919050565b6000610b8582610b23565b610b8f8185610b2e565b9350610b9f818560208601610b3f565b610ba881610b69565b840191505092915050565b6000608082019050610bc86000830187610b14565b8181036020830152610bda8186610b7a565b90508181036040830152610bee8185610b7a565b9050610bfd6060830184610b14565b95945050505050565b7f4e6f2076616c6964206f72646572000000000000000000000000000000000000600082015250565b6000610c3c600e83610b2e565b9150610c4782610c06565b602082019050919050565b60006020820190508181036000830152610c6b81610c2f565b9050919050565b7f4f7264657220616c726561647920636f6e6669726d6564000000000000000000600082015250565b6000610ca8601783610b2e565b9150610cb382610c72565b602082019050919050565b60006020820190508181036000830152610cd781610c9b565b9050919050565b600081905092915050565b50565b6000610cf9600083610cde565b9150610d0482610ce9565b600082019050919050565b6000610d1a82610cec565b9150819050919050565b7f526566756e64206661696c656400000000000000000000000000000000000000600082015250565b6000610d5a600d83610b2e565b9150610d6582610d24565b602082019050919050565b60006020820190508181036000830152610d8981610d4d565b9050919050565b7f46696e697368206f722063616e63656c206578697374696e67206f7264657200600082015250565b6000610dc6601f83610b2e565b9150610dd182610d90565b602082019050919050565b60006020820190508181036000830152610df581610db9565b9050919050565b7f4e616d6520726571756972656400000000000000000000000000000000000000600082015250565b6000610e32600d83610b2e565b9150610e3d82610dfc565b602082019050919050565b60006020820190508181036000830152610e6181610e25565b9050919050565b7f4164647265737320726571756972656400000000000000000000000000000000600082015250565b6000610e9e601083610b2e565b9150610ea982610e68565b602082019050919050565b60006020820190508181036000830152610ecd81610e91565b9050919050565b7f496e636f72726563742045544820616d6f756e74000000000000000000000000600082015250565b6000610f0a601483610b2e565b9150610f1582610ed4565b602082019050919050565b60006020820190508181036000830152610f3981610efd565b9050919050565b7f4e487b7100000000000000000000000000000000000000000000000000000000600052604160045260246000fd5b7f4e487b7100000000000000000000000000000000000000000000000000000000600052602260045260246000fd5b60006002820490506001821680610fb657607f821691505b602082108103610fc957610fc8610f6f565b5b50919050565b60008190508160005260206000209050919050565b60006020601f8301049050919050565b600082821b905092915050565b6000600883026110317fffffffffffffffffffffffffffffffffffffffffffffffffffffffffffffffff82610ff4565b61103b8683610ff4565b95508019841693508086168417925050509392505050565b6000819050919050565b600061107861107361106e84610959565b611053565b610959565b9050919050565b6000819050919050565b6110928361105d565b6110a661109e8261107f565b848454611001565b825550505050565b600090565b6110bb6110ae565b6110c6818484611089565b505050565b5b818110156110ea576110df6000826110b3565b6001810190506110cc565b5050565b601f82111561112f5761110081610fcf565b61110984610fe4565b81016020851015611118578190505b61112c61112485610fe4565b8301826110cb565b50505b505050565b600082821c905092915050565b600061115260001984600802611134565b1980831691505092915050565b600061116b8383611141565b9150826002028217905092915050565b61118482610b23565b67ffffffffffffffff81111561119d5761119c610f40565b5b6111a78254610f9e565b6111b28282856110ee565b600060209050601f8311600181146111e557600084156111d3578287015190505b6111dd858261115f565b865550611245565b601f1984166111f386610fcf565b60005b8281101561121b578489015182556001820191506020850194506020810190506111f6565b868310156112385784890151611234601f891682611141565b8355505b6001600288020188555050505b505050505050565b82818337600083830152505050565b60006112688385610b2e565b935061127583858461124d565b61127e83610b69565b840190509392505050565b600060608201905081810360008301526112a481878961125c565b905081810360208301526112b981858761125c565b90506112c86040830184610963565b969550505050505056fea264697066735822122035431bbc58e078ff1e772c32b7915d97b24e41a13fe61e722bc7c14e6c77890f64736f6c63430008140033",
  "linkReferences": {},
  "deployedLinkReferences": {}
}